{
  "contractName": "IdentityManager",
  "abi": [
    {
      "anonymous": false,
      "inputs": [
        {
          "indexed": true,
          "internalType": "address",
          "name": "userAddress",
          "type": "address"
        },
        {
          "indexed": false,
          "internalType": "uint256",
          "name": "timestamp",
          "type": "uint256"
        }
      ],
      "name": "IdentityDeactivated",
      "type": "event"
    },
    {
      "anonymous": false,
      "inputs": [
        {
          "indexed": true,
          "internalType": "address",
          "name": "userAddress",
          "type": "address"
        },
        {
          "indexed": false,
          "internalType": "string",
          "name": "name",
          "type": "string"
        },
        {
          "indexed": false,
          "internalType": "string",
          "name": "email",
          "type": "string"
        },
        {
          "indexed": false,
          "internalType": "uint256",
          "name": "timestamp",
          "type": "uint256"
        }
      ],
      "name": "IdentityRegistered",
      "type": "event"
    },
    {
      "anonymous": false,
      "inputs": [
        {
          "indexed": true,
          "internalType": "address",
          "name": "userAddress",
          "type": "address"
        },
        {
          "indexed": false,
          "internalType": "string",
          "name": "name",
          "type": "string"
        },
        {
          "indexed": false,
          "internalType": "string",
          "name": "email",
          "type": "string"
        },
        {
          "indexed": false,
          "internalType": "uint256",
          "name": "timestamp",
          "type": "uint256"
        }
      ],
      "name": "IdentityUpdated",
      "type": "event"
    },
    {
      "inputs": [
        {
          "internalType": "string",
          "name": "_name",
          "type": "string"
        },
        {
          "internalType": "string",
          "name": "_email",
          "type": "string"
        },
        {
          "internalType": "string",
          "name": "_hashedAadhaar",
          "type": "string"
        }
      ],
      "name": "registerIdentity",
      "outputs": [],
      "stateMutability": "nonpayable",
      "type": "function"
    },
    {
      "inputs": [
        {
          "internalType": "string",
          "name": "_name",
          "type": "string"
        },
        {
          "internalType": "string",
          "name": "_email",
          "type": "string"
        }
      ],
      "name": "updateIdentity",
      "outputs": [],
      "stateMutability": "nonpayable",
      "type": "function"
    },
    {
      "inputs": [
        {
          "internalType": "address",
          "name": "_userAddress",
          "type": "address"
        }
      ],
      "name": "getIdentity",
      "outputs": [
        {
          "internalType": "string",
          "name": "name",
          "type": "string"
        },
        {
          "internalType": "string",
          "name": "email",
          "type": "string"
        },
        {
          "internalType": "string",
          "name": "hashedAadhaar",
          "type": "string"
        },
        {
          "internalType": "address",
          "name": "ethAddress",
          "type": "address"
        },
        {
          "internalType": "uint256",
          "name": "registrationTime",
          "type": "uint256"
        },
        {
          "internalType": "bool",
          "name": "isActive",
          "type": "bool"
        }
      ],
      "stateMutability": "view",
      "type": "function",
      "constant": true
    },
    {
      "inputs": [],
      "name": "getMyIdentity",
      "outputs": [
        {
          "internalType": "string",
          "name": "name",
          "type": "string"
        },
        {
          "internalType": "string",
          "name": "email",
          "type": "string"
        },
        {
          "internalType": "string",
          "name": "hashedAadhaar",
          "type": "string"
        },
        {
          "internalType": "address",
          "name": "ethAddress",
          "type": "address"
        },
        {
          "internalType": "uint256",
          "name": "registrationTime",
          "type": "uint256"
        },
        {
          "internalType": "bool",
          "name": "isActive",
          "type": "bool"
        }
      ],
      "stateMutability": "view",
      "type": "function",
      "constant": true
    },
    {
      "inputs": [
        {
          "internalType": "address",
          "name": "_userAddress",
          "type": "address"
        }
      ],
      "name": "isRegistered",
      "outputs": [
        {
          "internalType": "bool",
          "name": "",
          "type": "bool"
        }
      ],
      "stateMutability": "view",
      "type": "function",
      "constant": true
    },
    {
      "inputs": [
        {
          "internalType": "string",
          "name": "_email",
          "type": "string"
        }
      ],
      "name": "isEmailRegistered",
      "outputs": [
        {
          "internalType": "bool",
          "name": "",
          "type": "bool"
        }
      ],
      "stateMutability": "view",
      "type": "function",
      "constant": true
    },
    {
      "inputs": [],
      "name": "deactivateIdentity",
      "outputs": [],
      "stateMutability": "nonpayable",
      "type": "function"
    },
    {
      "inputs": [],
      "name": "getTotalUsers",
      "outputs": [
        {
          "internalType": "uint256",
          "name": "",
          "type": "uint256"
        }
      ],
      "stateMutability": "view",
      "type": "function",
      "constant": true
    },
    {
      "inputs": [],
      "name": "getAllUsers",
      "outputs": [
        {
          "internalType": "address[]",
          "name": "",
          "type": "address[]"
        }
      ],
      "stateMutability": "view",
      "type": "function",
      "constant": true
    }
  ],
  "bytecode": "0x608060405234801561001057600080fd5b50611446806100206000396000f3fe608060405234801561001057600080fd5b50600436106100b0576000357c010000000000000000000000000000000000000000000000000000000090048063bdc95b3211610083578063bdc95b321461010b578063c3c5a5471461011e578063df3cdad714610141578063e16efc6d14610154578063e2842d791461016757600080fd5b806306966d9c146100b55780632fea7b81146100bf5780639be572f6146100ed578063b9d6964714610103575b600080fd5b6100bd61017c565b005b6100d26100cd366004610e83565b610272565b6040516100e496959493929190610f03565b60405180910390f35b6100f561057f565b6040519081526020016100e4565b6100d26105fa565b6100bd61011936600461100c565b610657565b61013161012c366004610e83565b610a63565b60405190151581526020016100e4565b61013161014f366004611094565b610ae2565b6100bd6101623660046110d1565b610b0d565b61016f610d56565b6040516100e49190611135565b3360009081526020819052604090206005015460ff166101ba5760405160e560020a62461bcd0281526004016101b190611182565b60405180910390fd5b3360009081526020819052604080822060058101805460ff1916905590519091906001906101eb90828501906111f0565b908152604051908190036020018120805492151560ff199093169290921790915560009060029061021f90848301906111f0565b90815260405160209181900382018120805460ff19169315159390931790925542825233917f3af48ba1ea1b629114d2f974e6b589b8ede77ef3d57b4c6c415f6b1f2321bdb6910160405180910390a250565b606080806000808086600160a060020a0381166102d45760405160e560020a62461bcd02815260206004820152600f60248201527f496e76616c69642061646472657373000000000000000000000000000000000060448201526064016101b1565b600160a060020a03881660009081526020819052604090206005015460ff166103425760405160e560020a62461bcd02815260206004820152601e60248201527f4964656e74697479206e6f7420666f756e64206f7220696e616374697665000060448201526064016101b1565b600160a060020a038816600090815260208190526040808220815160c08101909252805482908290610373906111b9565b80601f016020809104026020016040519081016040528092919081815260200182805461039f906111b9565b80156103ec5780601f106103c1576101008083540402835291602001916103ec565b820191906000526020600020905b8154815290600101906020018083116103cf57829003601f168201915b50505050508152602001600182018054610405906111b9565b80601f0160208091040260200160405190810160405280929190818152602001828054610431906111b9565b801561047e5780601f106104535761010080835404028352916020019161047e565b820191906000526020600020905b81548152906001019060200180831161046157829003601f168201915b50505050508152602001600282018054610497906111b9565b80601f01602080910402602001604051908101604052809291908181526020018280546104c3906111b9565b80156105105780601f106104e557610100808354040283529160200191610510565b820191906000526020600020905b8154815290600101906020018083116104f357829003601f168201915b50505091835250506003820154600160a060020a0316602080830191909152600483015460408084019190915260059093015460ff1615156060928301528351908401519284015191840151608085015160a090950151919e939d50919b509099509197509095509350505050565b600080805b6003548110156105f457600080600383815481106105a4576105a4611266565b6000918252602080832090910154600160a060020a0316835282019290925260400190206005015460ff16156105e257816105de8161127f565b9250505b806105ec8161127f565b915050610584565b50919050565b3360009081526020819052604081206005015460609182918291908190819060ff1661063b5760405160e560020a62461bcd0281526004016101b190611182565b61064433610272565b949b939a50919850965094509092509050565b60008351116106ab5760405160e560020a62461bcd02815260206004820152601460248201527f4e616d652063616e6e6f7420626520656d70747900000000000000000000000060448201526064016101b1565b60008251116106ff5760405160e560020a62461bcd02815260206004820152601560248201527f456d61696c2063616e6e6f7420626520656d707479000000000000000000000060448201526064016101b1565b60008151116107535760405160e560020a62461bcd02815260206004820152601e60248201527f48617368656420416164686161722063616e6e6f7420626520656d707479000060448201526064016101b1565b3360009081526020819052604090206005015460ff16156107b95760405160e560020a62461bcd02815260206004820152601b60248201527f4964656e7469747920616c72656164792072656769737465726564000000000060448201526064016101b1565b6001826040516107c991906112a9565b9081526040519081900360200190205460ff161561082c5760405160e560020a62461bcd02815260206004820152601860248201527f456d61696c20616c72656164792072656769737465726564000000000000000060448201526064016101b1565b60028160405161083c91906112a9565b9081526040519081900360200190205460ff161561089f5760405160e560020a62461bcd02815260206004820152601a60248201527f4161646861617220616c7265616479207265676973746572656400000000000060448201526064016101b1565b6040805160c08101825284815260208082018590528183018490523360608301819052426080840152600160a084015260009081529081905291909120815181906108ea9082611314565b50602082015160018201906108ff9082611314565b50604082015160028201906109149082611314565b50606082015160038201805473ffffffffffffffffffffffffffffffffffffffff1916600160a060020a039092169190911790556080820151600482015560a0909101516005909101805460ff1916911515919091179055604051600190819061097f9085906112a9565b908152604051908190036020018120805492151560ff19909316929092179091556001906002906109b19084906112a9565b908152604051908190036020018120805492151560ff1990931692909217909155600380546001810182556000919091527fc2575a0e9e593c00f959f8c92f12db2869c3395a3b0502d05e2516446f71f85b01805473ffffffffffffffffffffffffffffffffffffffff191633908117909155907f85a5b01aa82568108addba6f06de4e85e18aca0bdfe69e41fca7e6e75ccf8cd290610a56908690869042906113da565b60405180910390a2505050565b600081600160a060020a038116610abf5760405160e560020a62461bcd02815260206004820152600f60248201527f496e76616c69642061646472657373000000000000000000000000000000000060448201526064016101b1565b5050600160a060020a031660009081526020819052604090206005015460ff1690565b6000600182604051610af491906112a9565b9081526040519081900360200190205460ff1692915050565b3360009081526020819052604090206005015460ff16610b425760405160e560020a62461bcd0281526004016101b190611182565b6000825111610b965760405160e560020a62461bcd02815260206004820152601460248201527f4e616d652063616e6e6f7420626520656d70747900000000000000000000000060448201526064016101b1565b6000815111610bea5760405160e560020a62461bcd02815260206004820152601560248201527f456d61696c2063616e6e6f7420626520656d707479000000000000000000000060448201526064016101b1565b33600090815260208181526040918290208351918401919091209151909190610c179060018401906111f0565b604051809103902014610cfe57600182604051610c3491906112a9565b9081526040519081900360200190205460ff1615610c975760405160e560020a62461bcd02815260206004820152601860248201527f456d61696c20616c72656164792072656769737465726564000000000000000060448201526064016101b1565b6000600182600101604051610cac91906111f0565b908152604051908190036020018120805492151560ff19909316929092179091556001908190610cdd9085906112a9565b908152604051908190036020019020805491151560ff199092169190911790555b80610d098482611314565b5060018101610d188382611314565b5033600160a060020a03167f1b7c647fcdf72720e83e21aa513465c010bea26574010b9e5ca7cac5016626a2848442604051610a56939291906113da565b60606000610d6261057f565b905060008167ffffffffffffffff811115610d7f57610d7f610f66565b604051908082528060200260200182016040528015610da8578160200160208202803683370190505b5090506000805b600354811015610e7a5760008060038381548110610dcf57610dcf611266565b6000918252602080832090910154600160a060020a0316835282019290925260400190206005015460ff1615610e685760038181548110610e1257610e12611266565b9060005260206000200160009054906101000a9004600160a060020a0316838381518110610e4257610e42611266565b600160a060020a039092166020928302919091019091015281610e648161127f565b9250505b80610e728161127f565b915050610daf565b50909392505050565b600060208284031215610e9557600080fd5b8135600160a060020a0381168114610eac57600080fd5b9392505050565b60005b83811015610ece578181015183820152602001610eb6565b50506000910152565b60008151808452610eef816020860160208601610eb3565b601f01601f19169290920160200192915050565b60c081526000610f1660c0830189610ed7565b8281036020840152610f288189610ed7565b90508281036040840152610f3c8188610ed7565b600160a060020a0396909616606084015250506080810192909252151560a0909101529392505050565b60e060020a634e487b7102600052604160045260246000fd5b600082601f830112610f9057600080fd5b813567ffffffffffffffff80821115610fab57610fab610f66565b604051601f8301601f19908116603f01168101908282118183101715610fd357610fd3610f66565b81604052838152866020858801011115610fec57600080fd5b836020870160208301376000602085830101528094505050505092915050565b60008060006060848603121561102157600080fd5b833567ffffffffffffffff8082111561103957600080fd5b61104587838801610f7f565b9450602086013591508082111561105b57600080fd5b61106787838801610f7f565b9350604086013591508082111561107d57600080fd5b5061108a86828701610f7f565b9150509250925092565b6000602082840312156110a657600080fd5b813567ffffffffffffffff8111156110bd57600080fd5b6110c984828501610f7f565b949350505050565b600080604083850312156110e457600080fd5b823567ffffffffffffffff808211156110fc57600080fd5b61110886838701610f7f565b9350602085013591508082111561111e57600080fd5b5061112b85828601610f7f565b9150509250929050565b6020808252825182820181905260009190848201906040850190845b81811015611176578351600160a060020a031683529284019291840191600101611151565b50909695505050505050565b6020808252601f908201527f55736572206e6f742072656769737465726564206f7220696e61637469766500604082015260600190565b6002810460018216806111cd57607f821691505b6020821081036105f45760e060020a634e487b7102600052602260045260246000fd5b60008083546111fe816111b9565b60018281168015611216576001811461122b5761125a565b60ff198416875282151583028701945061125a565b8760005260208060002060005b858110156112515781548a820152908401908201611238565b50505082870194505b50929695505050505050565b60e060020a634e487b7102600052603260045260246000fd5b6000600182016112a25760e060020a634e487b7102600052601160045260246000fd5b5060010190565b600082516112bb818460208701610eb3565b9190910192915050565b601f82111561130f576000818152602081206020601f860104810160208610156112ec5750805b6020601f860104820191505b8181101561130b578281556001016112f8565b5050505b505050565b815167ffffffffffffffff81111561132e5761132e610f66565b6113428161133c84546111b9565b846112c5565b602080601f83116001811461137b576000841561135f5750858301515b60028086026008870290910a600019041982161786555061130b565b600085815260208120601f198616915b828110156113aa5788860151825594840194600190910190840161138b565b50858210156113ca57878501516008601f88160260020a60001904191681555b5050505050600202600101905550565b6060815260006113ed6060830186610ed7565b82810360208401526113ff8186610ed7565b91505082604083015294935050505056fea26469706673582212202536a2b246963d142e72aa48370d51447b32fd72c39eee9bcdae862c873e860964736f6c63430008130033",
  "immutableReferences": {},
  "source": "// SPDX-License-Identifier: MIT\r\npragma solidity ^0.8.19;\r\n\r\n/**\r\n * @title IdentityManager\r\n * @dev Smart contract for managing decentralized identities\r\n * Stores user profile information on blockchain including hashed Aadhaar\r\n */\r\ncontract IdentityManager {\r\n    \r\n    // Struct to store user identity information\r\n    struct Identity {\r\n        string name;\r\n        string email;\r\n        string hashedAadhaar;  // SHA-256 hash of Aadhaar number for privacy\r\n        address ethAddress;\r\n        uint256 registrationTime;\r\n        bool isActive;\r\n    }\r\n    \r\n    // Mapping from Ethereum address to Identity\r\n    mapping(address => Identity) private identities;\r\n    \r\n    // Mapping to check if email is already registered\r\n    mapping(string => bool) private emailExists;\r\n    \r\n    // Mapping to check if hashed Aadhaar is already registered\r\n    mapping(string => bool) private aadhaarExists;\r\n    \r\n    // Array to store all registered addresses for enumeration\r\n    address[] private registeredUsers;\r\n    \r\n    // Events for logging important actions\r\n    event IdentityRegistered(\r\n        address indexed userAddress,\r\n        string name,\r\n        string email,\r\n        uint256 timestamp\r\n    );\r\n    \r\n    event IdentityUpdated(\r\n        address indexed userAddress,\r\n        string name,\r\n        string email,\r\n        uint256 timestamp\r\n    );\r\n    \r\n    event IdentityDeactivated(address indexed userAddress, uint256 timestamp);\r\n    \r\n    // Modifiers for access control\r\n    modifier onlyRegisteredUser() {\r\n        require(identities[msg.sender].isActive, \"User not registered or inactive\");\r\n        _;\r\n    }\r\n    \r\n    modifier validAddress(address _addr) {\r\n        require(_addr != address(0), \"Invalid address\");\r\n        _;\r\n    }\r\n    \r\n    /**\r\n     * @dev Register a new identity on the blockchain\r\n     * @param _name User's full name\r\n     * @param _email User's email address\r\n     * @param _hashedAadhaar SHA-256 hash of user's Aadhaar number\r\n     */\r\n    function registerIdentity(\r\n        string memory _name,\r\n        string memory _email,\r\n        string memory _hashedAadhaar\r\n    ) public {\r\n        require(bytes(_name).length > 0, \"Name cannot be empty\");\r\n        require(bytes(_email).length > 0, \"Email cannot be empty\");\r\n        require(bytes(_hashedAadhaar).length > 0, \"Hashed Aadhaar cannot be empty\");\r\n        require(!identities[msg.sender].isActive, \"Identity already registered\");\r\n        require(!emailExists[_email], \"Email already registered\");\r\n        require(!aadhaarExists[_hashedAadhaar], \"Aadhaar already registered\");\r\n        \r\n        // Create new identity\r\n        identities[msg.sender] = Identity({\r\n            name: _name,\r\n            email: _email,\r\n            hashedAadhaar: _hashedAadhaar,\r\n            ethAddress: msg.sender,\r\n            registrationTime: block.timestamp,\r\n            isActive: true\r\n        });\r\n        \r\n        // Mark email and Aadhaar as used\r\n        emailExists[_email] = true;\r\n        aadhaarExists[_hashedAadhaar] = true;\r\n        \r\n        // Add to registered users array\r\n        registeredUsers.push(msg.sender);\r\n        \r\n        emit IdentityRegistered(msg.sender, _name, _email, block.timestamp);\r\n    }\r\n    \r\n    /**\r\n     * @dev Update existing identity information\r\n     * @param _name New name\r\n     * @param _email New email (must be unique)\r\n     */\r\n    function updateIdentity(\r\n        string memory _name,\r\n        string memory _email\r\n    ) public onlyRegisteredUser {\r\n        require(bytes(_name).length > 0, \"Name cannot be empty\");\r\n        require(bytes(_email).length > 0, \"Email cannot be empty\");\r\n        \r\n        Identity storage identity = identities[msg.sender];\r\n        \r\n        // If email is changing, check if new email is available\r\n        if (keccak256(bytes(identity.email)) != keccak256(bytes(_email))) {\r\n            require(!emailExists[_email], \"Email already registered\");\r\n            emailExists[identity.email] = false; // Release old email\r\n            emailExists[_email] = true; // Reserve new email\r\n        }\r\n        \r\n        identity.name = _name;\r\n        identity.email = _email;\r\n        \r\n        emit IdentityUpdated(msg.sender, _name, _email, block.timestamp);\r\n    }\r\n    \r\n    /**\r\n     * @dev Get user information by address\r\n     * @param _userAddress The address of the user to retrieve\r\n     * @return name User's name\r\n     * @return email User's email\r\n     * @return hashedAadhaar User's hashed Aadhaar number\r\n     * @return ethAddress User's Ethereum address\r\n     * @return registrationTime Registration timestamp\r\n     * @return isActive Whether the identity is active\r\n     */\r\n    function getIdentity(address _userAddress) \r\n        public \r\n        view \r\n        validAddress(_userAddress)\r\n        returns (\r\n            string memory name,\r\n            string memory email,\r\n            string memory hashedAadhaar,\r\n            address ethAddress,\r\n            uint256 registrationTime,\r\n            bool isActive\r\n        ) \r\n    {\r\n        require(identities[_userAddress].isActive, \"Identity not found or inactive\");\r\n        \r\n        Identity memory identity = identities[_userAddress];\r\n        return (\r\n            identity.name,\r\n            identity.email,\r\n            identity.hashedAadhaar,\r\n            identity.ethAddress,\r\n            identity.registrationTime,\r\n            identity.isActive\r\n        );\r\n    }\r\n    \r\n    /**\r\n     * @dev Get current user's information (msg.sender)\r\n     * @return name User's name\r\n     * @return email User's email\r\n     * @return hashedAadhaar User's hashed Aadhaar number\r\n     * @return ethAddress User's Ethereum address\r\n     * @return registrationTime Registration timestamp\r\n     * @return isActive Whether the identity is active\r\n     */\r\n    function getMyIdentity() \r\n        public \r\n        view \r\n        onlyRegisteredUser\r\n        returns (\r\n            string memory name,\r\n            string memory email,\r\n            string memory hashedAadhaar,\r\n            address ethAddress,\r\n            uint256 registrationTime,\r\n            bool isActive\r\n        ) \r\n    {\r\n        return getIdentity(msg.sender);\r\n    }\r\n    \r\n    /**\r\n     * @dev Check if an address has a registered identity\r\n     * @param _userAddress Address to check\r\n     * @return bool indicating if identity exists and is active\r\n     */\r\n    function isRegistered(address _userAddress) \r\n        public \r\n        view \r\n        validAddress(_userAddress)\r\n        returns (bool) \r\n    {\r\n        return identities[_userAddress].isActive;\r\n    }\r\n    \r\n    /**\r\n     * @dev Check if an email is already registered\r\n     * @param _email Email to check\r\n     * @return bool indicating if email is taken\r\n     */\r\n    function isEmailRegistered(string memory _email) \r\n        public \r\n        view \r\n        returns (bool) \r\n    {\r\n        return emailExists[_email];\r\n    }\r\n    \r\n    /**\r\n     * @dev Deactivate identity (soft delete)\r\n     * Only the identity owner can deactivate their own identity\r\n     */\r\n    function deactivateIdentity() public onlyRegisteredUser {\r\n        Identity storage identity = identities[msg.sender];\r\n        identity.isActive = false;\r\n        \r\n        // Release email and Aadhaar for reuse\r\n        emailExists[identity.email] = false;\r\n        aadhaarExists[identity.hashedAadhaar] = false;\r\n        \r\n        emit IdentityDeactivated(msg.sender, block.timestamp);\r\n    }\r\n    \r\n    /**\r\n     * @dev Get total number of registered users\r\n     * @return Total count of registered users\r\n     */\r\n    function getTotalUsers() public view returns (uint256) {\r\n        uint256 activeCount = 0;\r\n        for (uint256 i = 0; i < registeredUsers.length; i++) {\r\n            if (identities[registeredUsers[i]].isActive) {\r\n                activeCount++;\r\n            }\r\n        }\r\n        return activeCount;\r\n    }\r\n    \r\n    /**\r\n     * @dev Get all registered user addresses (active only)\r\n     * @return Array of active user addresses\r\n     */\r\n    function getAllUsers() public view returns (address[] memory) {\r\n        uint256 activeCount = getTotalUsers();\r\n        address[] memory activeUsers = new address[](activeCount);\r\n        \r\n        uint256 currentIndex = 0;\r\n        for (uint256 i = 0; i < registeredUsers.length; i++) {\r\n            if (identities[registeredUsers[i]].isActive) {\r\n                activeUsers[currentIndex] = registeredUsers[i];\r\n                currentIndex++;\r\n            }\r\n        }\r\n        \r\n        return activeUsers;\r\n    }\r\n}",
  "sourcePath": "C:\\Users\\WIN10\\Documents\\6sem\\BDA\\decentralized-identity-system\\contracts\\IdentityManager.sol",
  "compiler": {
    "name": "solc",
    "version": "0.8.19+commit.7dd6d404.Emscripten.clang"
  },
  "schemaVersion": "3.4.16",
  "updatedAt": "2025-05-29T16:10:54.606Z",
  "networkType": "ethereum",
  "devdoc": {
    "details": "Smart contract for managing decentralized identities Stores user profile information on blockchain including hashed Aadhaar",
    "kind": "dev",
    "methods": {
      "deactivateIdentity()": {
        "details": "Deactivate identity (soft delete) Only the identity owner can deactivate their own identity"
      },
      "getAllUsers()": {
        "details": "Get all registered user addresses (active only)",
        "returns": {
          "_0": "Array of active user addresses"
        }
      },
      "getIdentity(address)": {
        "details": "Get user information by address",
        "params": {
          "_userAddress": "The address of the user to retrieve"
        },
        "returns": {
          "email": "User's email",
          "ethAddress": "User's Ethereum address",
          "hashedAadhaar": "User's hashed Aadhaar number",
          "isActive": "Whether the identity is active",
          "name": "User's name",
          "registrationTime": "Registration timestamp"
        }
      },
      "getMyIdentity()": {
        "details": "Get current user's information (msg.sender)",
        "returns": {
          "email": "User's email",
          "ethAddress": "User's Ethereum address",
          "hashedAadhaar": "User's hashed Aadhaar number",
          "isActive": "Whether the identity is active",
          "name": "User's name",
          "registrationTime": "Registration timestamp"
        }
      },
      "getTotalUsers()": {
        "details": "Get total number of registered users",
        "returns": {
          "_0": "Total count of registered users"
        }
      },
      "isEmailRegistered(string)": {
        "details": "Check if an email is already registered",
        "params": {
          "_email": "Email to check"
        },
        "returns": {
          "_0": "bool indicating if email is taken"
        }
      },
      "isRegistered(address)": {
        "details": "Check if an address has a registered identity",
        "params": {
          "_userAddress": "Address to check"
        },
        "returns": {
          "_0": "bool indicating if identity exists and is active"
        }
      },
      "registerIdentity(string,string,string)": {
        "details": "Register a new identity on the blockchain",
        "params": {
          "_email": "User's email address",
          "_hashedAadhaar": "SHA-256 hash of user's Aadhaar number",
          "_name": "User's full name"
        }
      },
      "updateIdentity(string,string)": {
        "details": "Update existing identity information",
        "params": {
          "_email": "New email (must be unique)",
          "_name": "New name"
        }
      }
    },
    "title": "IdentityManager",
    "version": 1
  },
  "userdoc": {
    "kind": "user",
    "methods": {},
    "version": 1
  }
}